:100000000C945D000C9485000C9485000C94850084
:100010000C9485000C9485000C9485000C9485004C
:100020000C9485000C9485000C9485000C9485003C
:100030000C9485000C9485000C9485000C9485002C
:100040000C94FF030C9485000C94CD030C94A7032F
:100050000C9485000C9485000C9485000C9485000C
:100060000C9485000C9485000000000024002700FB
:100070002A0000000000250028002B0004040404CE
:100080000404040402020202020203030303030342
:10009000010204081020408001020408102001021F
:1000A00004081020000000080002010000030407FB
:1000B0000000000000000000AA0511241FBECFEFC1
:1000C000D8E0DEBFCDBF11E0A0E0B1E0EAE7F0E1AB
:1000D00002C005900D92A23FB107D9F722E0A2EF2E
:1000E000B1E001C01D92A839B207E1F710E0CDE5FB
:1000F000D0E004C02197FE010E943508CC35D1071D
:10010000C9F70E9449040C943B080C940000AF927C
:10011000BF92CF92DF92EF92FF920F931F93CF93F4
:10012000DF936C017B018B01040F151FEB015E0156
:10013000AE18BF08C017D10759F06991D601ED91EB
:10014000FC910190F081E02DC6010995892B79F78A
:10015000C501DF91CF911F910F91FF90EF90DF903C
:10016000CF90BF90AF900895FC01538D448D252F03
:1001700030E0842F90E0821B930B541710F0CF9641
:10018000089501970895FC01918D828D981761F073
:10019000A28DAE0FBF2FB11D5D968C91928D9F5F8A
:1001A0009F73928F90E008958FEF9FEF0895FC0169
:1001B000918D828D981731F0828DE80FF11D858D1C
:1001C00090E008958FEF9FEF0895FC01918D228DAF
:1001D000892F90E0805C9F4F821B91098F73992734
:1001E00008958BEF91E00E94E50021E0892B09F44E
:1001F00020E0822F089580E090E0892B29F00E9472
:10020000F10081110C9400000895FC01A48DA80F49
:10021000B92FB11DA35ABF4F2C91848D90E0019648
:100220008F739927848FA689B7892C93A089B18968
:100230008C91837080648C93938D848D981306C009
:100240000288F389E02D80818F7D80830895EF926D
:10025000FF920F931F93CF93DF93EC0181E0888F80
:100260009B8D8C8D98131AC0E889F989808185FF50
:1002700015C09FB7F894EE89FF896083E889F989F2
:1002800080818370806480839FBF81E090E0DF91F4
:10029000CF911F910F91FF90EF900895F62E0B8D47
:1002A00010E00F5F1F4F0F731127E02E8C8D8E1102
:1002B0000CC00FB607FCFACFE889F989808185FF69
:1002C000F5CFCE010E940501F1CFEB8DEC0FFD2F94
:1002D000F11DE35AFF4FF0829FB7F8940B8FEA8924
:1002E000FB8980818062CFCFCF93DF93EC01888D33
:1002F0008823B9F0AA89BB89E889F9898C9185FDA1
:1003000003C0808186FD0DC00FB607FCF7CF8C912E
:1003100085FFF2CF808185FFEDCFCE010E940501E0
:10032000E9CFDF91CF91089590E0FC01EC55FF4FAC
:100330002491FC01E057FF4F3491FC01E458FF4F3A
:10034000E491EE23C9F0222339F0233001F1A8F41F
:10035000213019F1223029F1F0E0EE0FFF1FEE58A5
:10036000FF4FA591B4918FB7F894EC91611126C01D
:1003700030953E233C938FBF08952730A9F0283055
:10038000C9F0243049F7809180008F7D03C08091AF
:1003900080008F7780938000DFCF84B58F7784BD16
:1003A000DBCF84B58F7DFBCF8091B0008F778093BA
:1003B000B000D2CF8091B0008F7DF9CF3E2BDACF45
:1003C000CF93DF9390E0FC01E057FF4F24918458D6
:1003D0009F4FFC0184918823D1F090E0880F991FF2
:1003E000FC01E859FF4FA591B491FC01EE58FF4F75
:1003F000C591D49161110EC09FB7F8948C91E22FF2
:10040000E0958E238C932881E223E8839FBFDF91C0
:10041000CF9108958FB7F894EC91E22BEC938FBFB6
:10042000F6CF8E50806480937C0080917A00806447
:1004300080937A0080917A0086FDFCCF80917800CD
:100440009091790008953FB7F8948091F7019091C9
:10045000F801A091F901B091FA0126B5A89B05C059
:100460002F3F19F00196A11DB11D3FBFBA2FA92F33
:10047000982F8827BC01CD01620F711D811D911D30
:1004800042E0660F771F881F991F4A95D1F708959C
:10049000FC0101900020E9F73197AF01481B590B8F
:1004A000BC018BEF91E00C9487008F929F92AF92EA
:1004B000BF920F931F93CF93DF93CDB7DEB7A19772
:1004C0000FB6F894DEBF0FBECDBF19A2423008F4BC
:1004D0004AE08E010F5D1F4F842E912CB12CA12C70
:1004E000A50194010E941308E62FB901CA01EA3060
:1004F000F4F4E05DD801EE938D01232B242B252B02
:1005000079F790E080E0109719F0CD010E94480241
:10051000A1960FB6F894DEBF0FBECDBFDF91CF918D
:100520001F910F91BF90AF909F908F900895E95CBD
:10053000E1CFCF92DF92EF92FF92CF93DF936C01E6
:10054000990FEE08FF08F7FE1FC06DE28BEF91E0F8
:100550000E942701EC0166277727CB016C197D09E2
:100560008E099F094AE00E945502C80FD91F82E1F7
:1005700091E00E9448028C0F9D1FDF91CF91FF9068
:10058000EF90DF90CF9008954AE0C701B6010E9436
:100590005502EC01ECCF4F925F926F927F928F9257
:1005A0009F92AF92BF92CF92DF92EF92FF920F9302
:1005B0001F93CF936B017C01742EAC019B010E94B1
:1005C0000E08882399F085E191E0CF911F910F915A
:1005D000FF90EF90DF90CF90BF90AF909F908F9063
:1005E0007F906F905F904F900C94480246015701A6
:1005F000E894B7F82FEF3FEF4FE75FE7C501B4018D
:100600000E940E0881110DC02FEF3FEF4FE75FE70B
:10061000C501B4010E94440618161CF489E191E05A
:10062000D4CF2FEF3FEF4FE75FE4C701B6010E9441
:100630009C0718161CF48DE191E0C7CF2FEF3FEF18
:100640004FE75FECC701B6010E94440687FDF3CF78
:1006500020E030E0A901C701B6010E94440610E085
:1006600000E087FF0AC06DE28BEF91E00E94270156
:100670008C01F7FAF094F7F8F094C0E060E070E0D5
:1006800080E09FE37C1641F020E030E040E251E45E
:100690000E944906CF5FF6CFA70196010E94D805B8
:1006A0002B013C010E94BB064B015C014AE00E9409
:1006B00055027C01E00EF11ECC23C1F1C501B4014D
:1006C0000E94EA069B01AC01C301B2010E94D7055A
:1006D0004B015C016EE28BEF91E00E942701E80E76
:1006E000F91EC15018F120E030E040E251E4C501AC
:1006F000B4010E94A1072B013C010E94BB064B01E3
:10070000B12CA12C4AE0C501B4010E945502E80EAB
:10071000F91EC501B4010E94EA069B01AC01C301A8
:10072000B2010E94D7054B015C01DBCFC701CF911D
:100730001F910F91FF90EF90DF90CF90BF90AF90FF
:100740009F908F907F906F905F904F9008951F9231
:100750000F920FB60F9211242F933F934F935F93F5
:100760006F937F938F939F93AF93BF93EF93FF9379
:100770008BEF91E00E940501FF91EF91BF91AF9146
:100780009F918F917F916F915F914F913F912F91A9
:100790000F900FBE0F901F9018951F920F920FB6DB
:1007A0000F9211242F938F939F93EF93FF93E091D8
:1007B0000B02F0910C028081E0911102F091120283
:1007C00082FD1BC09081809114028F5F8F732091F6
:1007D0001502821741F0E0911402F0E0E550FE4F5F
:1007E000958F80931402FF91EF919F918F912F919C
:1007F0000F900FBE0F901F9018958081F4CF1F921D
:100800000F920FB60F9211242F933F938F939F93C4
:10081000AF93BF938091F3019091F401A091F50102
:10082000B091F6013091F20123E0230F2D3758F5F6
:100830000196A11DB11D2093F2018093F3019093C5
:10084000F401A093F501B093F6018091F701909126
:10085000F801A091F901B091FA010196A11DB11D15
:100860008093F7019093F801A093F901B093FA01F6
:10087000BF91AF919F918F913F912F910F900FBE9C
:100880000F901F90189526E8230F0296A11DB11D09
:10089000D2CF789484B5826084BD84B5816084BDF4
:1008A00085B5826085BD85B5816085BD80916E000E
:1008B000816080936E00109281008091810082603F
:1008C000809381008091810081608093810080917C
:1008D00080008160809380008091B100846080936B
:1008E000B1008091B00081608093B00080917A0067
:1008F000846080937A0080917A00826080937A008D
:1009000080917A00816080937A0080917A0080687B
:1009100080937A001092C100E0910B02F0910C02DA
:1009200082E08083E0910702F09108021082E0915A
:100930000902F0910A028FEC808310921302E09179
:100940000F02F091100286E08083E0910D02F09199
:100950000E02808180618083E0910D02F0910E0291
:10096000808188608083E0910D02F0910E02808189
:1009700080688083E0910D02F0910E0280818F7D6E
:10098000808361E08DE00E94E00161E083E00E94ED
:10099000E00161E082E00E94E00161E086E00E9407
:1009A000E00161E087E00E94E00161E085E00E94F3
:1009B000E00160E08EE00E94E00160E082E10E94E0
:1009C000E00160E083E10E94E001C0E0D0E08EE061
:1009D0000E9411026C0182E10E941102BC01990F78
:1009E000880B990B0E94EC0620E030E040E85AE3C7
:1009F0000E94A10720E030E44CE955E40E94A107E1
:100A000020E030E040E251E40E9449064B015C01E5
:100A100083E10E9411027C0120E030E040EA51E4D1
:100A2000C501B4010E94440618160CF472C061E0BE
:100A300085E00E94940160E087E00E94940181E2D9
:100A400091E00E94480242E0C501B4010E94CB023D
:100A500081E491E00E94480282E191E00E94480214
:100A600025EFC21621E0D2060CF05EC060E08DE0FA
:100A70000E94940161E083E00E94940160E082E0C2
:100A80000E94940181E691E00E944802C6010E9402
:100A9000990289ECE816F1040CF055C061E086E09B
:100AA0000E9494018FE991E00E944802C7010E94D0
:100AB00099020E9423024B015C0188E8C82E83E161
:100AC000D82EE12CF12C0E942302681979098A0999
:100AD0009B09683E734081059105A8F321E0C21A85
:100AE000D108E108F10888EE880E83E0981EA11C69
:100AF000B11CC114D104E104F10429F7209709F4D1
:100B000066CF0E94F100882309F461CF0E940000A3
:100B10005ECF60E085E00E94940161E087E00E9482
:100B2000940185E491E08DCF61E08DE00E94940115
:100B300060E083E00E94940161E082E00E94940101
:100B400082E891E0A1CF60E086E00E94940187EC0A
:100B500091E0AACFEBEFF1E01382128288EE93E0EE
:100B6000A0E0B0E084839583A683B78384E091E01E
:100B70009183808385EC90E09587848784EC90E076
:100B80009787868780EC90E0918B808B81EC90E05A
:100B9000938B828B82EC90E0958B848B86EC90E03B
:100BA000978B868B118E128E138E148E089550584B
:100BB000BB27AA270E94EF050C9462070E945407E6
:100BC00038F00E945B0720F039F49F3F19F426F4B7
:100BD0000C9451070EF4E095E7FB0C944B07E92FBA
:100BE0000E94730758F3BA176207730784079507C3
:100BF00020F079F4A6F50C9495070EF4E0950B2EF1
:100C0000BA2FA02D0B01B90190010C01CA01A0015E
:100C10001124FF27591B99F0593F50F4503E68F1B9
:100C20001A16F040A22F232F342F4427585FF3CFFA
:100C3000469537952795A795F0405395C9F77EF4CB
:100C40001F16BA0B620B730B840BBAF09150A1F014
:100C5000FF0FBB1F661F771F881FC2F70EC0BA0F9A
:100C6000621F731F841F48F4879577956795B79522
:100C7000F7959E3F08F0B0CF9395880F08F099271D
:100C8000EE0F9795879508950E94270708F481E055
:100C900008950E945D060C9462070E945B0758F05D
:100CA0000E94540740F029F45F3F29F00C944B0751
:100CB00051110C9496070C9451070E94730768F326
:100CC0009923B1F3552391F3951B550BBB27AA2705
:100CD00062177307840738F09F5F5F4F220F331F3F
:100CE000441FAA1FA9F335D00E2E3AF0E0E832D007
:100CF00091505040E695001CCAF72BD0FE2F29D00A
:100D0000660F771F881FBB1F261737074807AB07DB
:100D1000B0E809F0BB0B802DBF01FF2793585F4F50
:100D20003AF09E3F510578F00C944B070C949607CF
:100D30005F3FE4F3983ED4F3869577956795B79532
:100D4000F7959F5FC9F7880F911D9695879597F93D
:100D50000895E1E0660F771F881FBB1F62177307B6
:100D60008407BA0720F0621B730B840BBA0BEE1FCB
:100D700088F7E09508950E947B0788F09F5798F0C8
:100D8000B92F9927B751B0F0E1F0660F771F881F90
:100D9000991F1AF0BA95C9F714C0B13091F00E94AA
:100DA0009507B1E008950C949507672F782F882751
:100DB000B85F39F0B93FCCF3869577956795B395D1
:100DC000D9F73EF490958095709561957F4F8F4F40
:100DD0009F4F0895E89409C097FB3EF49095809545
:100DE000709561957F4F8F4F9F4F9923A9F0F92FF1
:100DF00096E9BB279395F695879577956795B7956F
:100E0000F111F8CFFAF4BB0F11F460FF1BC06F5F54
:100E10007F4F8F4F9F4F16C0882311F096E911C066
:100E2000772321F09EE8872F762F05C0662371F087
:100E300096E8862F70E060E02AF09A95660F771F9B
:100E4000881FDAF7880F9695879597F90895990F77
:100E50000008550FAA0BE0E8FEEF16161706E80784
:100E6000F907C0F012161306E407F50798F0621BA5
:100E7000730B840B950B39F40A2661F0232B242B7A
:100E8000252B21F408950A2609F4A140A6958FEF99
:100E9000811D811D089597F99F6780E870E060E0EB
:100EA00008959FEF80EC089500240A941616170603
:100EB00018060906089500240A941216130614064B
:100EC00005060895092E0394000C11F4882352F0AE
:100ED000BB0F40F4BF2B11F460FF04C06F5F7F4F66
:100EE0008F4F9F4F089557FD9058440F551F59F04D
:100EF0005F3F71F04795880F97FB991F61F09F3F07
:100F000079F087950895121613061406551FF2CF2F
:100F10004695F1DF08C0161617061806991FF1CF7F
:100F200086957105610508940895E894BB276627A6
:100F30007727CB0197F908950E94270708F48FEFD0
:100F400008950E94B4070C9462070E94540738F079
:100F50000E945B0720F0952311F00C944B070C9432
:100F6000510711240C9496070E94730770F3959F04
:100F7000C1F3950F50E0551F629FF001729FBB2790
:100F8000F00DB11D639FAA27F00DB11DAA1F649F2C
:100F90006627B00DA11D661F829F2227B00DA11DDF
:100FA000621F739FB00DA11D621F839FA00D611D65
:100FB000221F749F3327A00D611D231F849F600D86
:100FC000211D822F762F6A2F11249F5750409AF0AF
:100FD000F1F088234AF0EE0FFF1FBB1F661F771F3B
:100FE000881F91505040A9F79E3F510580F00C9406
:100FF0004B070C9496075F3FE4F3983ED4F3869535
:1010000077956795B795F795E7959F5FC1F7FE2BA5
:10101000880F911D9695879597F908950E94270747
:10102000880B990B0895A1E21A2EAA1BBB1BFD0188
:101030000DC0AA1FBB1FEE1FFF1FA217B307E407B7
:10104000F50720F0A21BB30BE40BF50B661F771F0F
:10105000881F991F1A9469F76095709580959095EF
:101060009B01AC01BD01CF010895EE0FFF1F05905C
:0A107000F491E02D0994F894FFCFED
:10107A000000000027018700B4007401E500C300E6
:10108A00D7000D0A006E616E00696E66006F7666A3
:10109A000049747320434F4C442C205475726E20BF
:1010AA006F6E2074686520486561746572203A2005
:1010BA0000202A430049747320484F542C20547549
:1010CA00726E204F4E207468652046414E203A20A9
:1010DA0000497473204252494748542C205475726F
:1010EA006E206F666620746865204C4544203A205D
:1010FA002000497473204441524B2C205475726E5F
:10110A00206F6E20746865204C4544203A200057B1
:10111A0061746572206C6576656C206973204C4F2A
:10112A00572C205475726E204F4E207468652050DB
:10113A00756D70203A20005761746572206C65766F
:10114A00656C20697320474F4F442C205475726E8A
:10115A00204F4646207468652050756D70203A20ED
:02116A00000083
:00000001FF
